:020000040800F2
:1000000000280020750F0008050F00080B0F0008DE
:10001000110F0008170F00081D0F00080000000056
:10002000000000000000000000000000230F000896
:100030002F0F0008000000003B0F0008470F0008CA
:10004000BD0F0008BD0F0008BD0F0008BD0F000860
:10005000BD0F0008BD0F0008BD0F0008BD0F000850
:10006000BD0F0008BD0F0008BD0F0008BD0F000840
:10007000BD0F0008BD0F0008BD0F0008BD0F000830
:10008000BD0F0008BD0F0008BD0F0008BD0F000820
:10009000BD0F0008BD0F0008BD0F0008BD0F000810
:1000A000BD0F0008BD0F0008BD0F0008BD0F000800
:1000B000550F0008BD0F000800000000BD0F00082C
:1000C000BD0F00080000000000000000BD0F000888
:1000D00000000000BD0F0008BD0F00080000000078
:1000E000BD0F0008BD0F0008BD0F00080000000094
:1000F0000000000000000000000000000000000000
:0C01000000000000000000005FF808F1A3
:10010C0010B5054C237833B9044B13B10448AFF345
:10011C0000800123237010BD2C0000200000000083
:10012C00EC25000808B5034B1BB103490348AFF39A
:10013C00008008BD0000000030000020EC25000805
:10014C0080B500AF404B1B78022B6BD0022B78DCB8
:10015C00002B02D0012B59D073E0002000F020FAC4
:10016C000346002B50D0384B01221A70374B1B78AA
:10017C0001335A4203F0030302F0030258BF534207
:10018C00DAB2324B1A70324B00221A70002000F097
:10019C00E7FB00F057FC2D4B1B78032B16D0032BE1
:1001AC001CDC012B02D0022B08D017E0294B1B685A
:1001BC00294A1360FA2000F0B7FB26E0274B1B6896
:1001CC00254A1360FA2000F0AFFB1EE0244B1B689D
:1001DC00214A1360FA2000F0A7FB16E0214B002205
:1001EC001A701F4B1B68184600F072FB012000F0C0
:1001FC0085FB1B4B1B681C4A1360164B1B681B4A68
:10020C00136000F02BFC00E000BF1AE04FF400512B
:10021C00174801F0B9F90346012B0FD10A4B002204
:10022C001A700BE04FF40051114801F0ADF9034680
:10023C00012B05D1044B00221A7001E000BF00E035
:10024C0000BF00BF80BD00BF480000204A00002056
:10025C0049000020140000204C0000201800002051
:10026C001C0000206F000020700000207400002093
:10027C00000C014080B500AF324B1B78022B36D0FE
:10028C00022B5DDC002B02D0012B16D058E0012094
:10029C0000F086F90346002B4DD02A4B01221A7030
:1002AC00294B1B680133284A1360274B1B68632BAF
:1002BC0041DD254B01221A603DE04FF4804123487B
:1002CC0001F062F90346012B03D11E4B00221A7078
:1002DC0033E0012000F082F90346002B2DD0194B9E
:1002EC0002221A704FF4FA7000F03AFB25E04FF43A
:1002FC008041164801F048F90346012B06D1114BF9
:10030C0000221A70002000F02BFB18E0104B1B6829
:10031C00012B14D10C4B1B6801330B4A13600A4B95
:10032C001B68632B02DD084B01221A604FF4FA7034
:10033C0000F016FB03E000BF02E000BF00E000BFCE
:10034C0000BF80BD490000204C000020000C014083
:10035C009400002080B500AFFFF78CFF022000F066
:10036C001FF90346002B10D0094B1A68094B1B6868
:10037C009A420ADD064B1B68074A1360064B1A6843
:10038C00044B1B68D31A054A136000BF80BD00BF25
:10039C004C00002018000020140000201C0000203D
:1003AC0080B500AFFFF766FF022000F0F9F80346B6
:1003BC00002B0AD0064B1B68064A1360064B1A68C2
:1003CC00044B1B681344054A136000BF80BD00BF7B
:1003DC004C000020180000201C00002014000020FD
:1003EC0080B500AFFFF746FF022000F0D9F80346B6
:1003FC00002B0AD0064B1B68064A1360054B1A6883
:10040C00054B1B681344054A136000BF80BD00BF39
:10041C004C0000201C0000201800002014000020BC
:10042C0090B585B000AF0023FB73A2E00223BB6044
:10043C0016E0F97BBB68581EFA7B524C0B465B00EE
:10044C000B442344034418784E4913465B00134471
:10045C00CA18BB68134402461A70BB68013BBB60E8
:10046C00BB68002BE5DCFB7B474A52F82320FB7B67
:10047C00464931F81330FC7B1946104601F084F8DC
:10048C00034619463F4A23465B00234413440A465D
:10049C001A7001237B6000233B601AE0FA7B394918
:1004AC0013465B001344CA183B6813441978FA7B53
:1004BC003B68581C334C13465B00134423440344E1
:1004CC001B78994202D000237B6005E03B68013326
:1004DC003B603B68012BE1DD7B68002B23D0FB7B71
:1004EC002B4AD15CFA7B274813465B001344034428
:1004FC001B78994217D0FA7BF97B224813465B0094
:10050C00134403441A78224B5A54FB7B204AD35C85
:10051C00002B08D1FB7B1F4A0121D154FB7B1E4AC7
:10052C00642122F81310FB7B194AD35C002B19D1E0
:10053C00FB7B194A32F81330002B17D0FB7B164A81
:10054C0032F81320013A91B2134A22F81310FB7BB4
:10055C00114A32F81330002B08D1FB7B0F4A0121D2
:10056C00D15403E0FB7B0D4A0021D154FB7B0133BA
:10057C00FB73FB7B022B7FF659AF00BF00BF143718
:10058C00BD4690BD54000020080000200000002053
:10059C005000002060000020640000206C0000204F
:1005AC0080B483B000AF0346FB71FB79022B01D9F9
:1005BC0000230BE0FB79084AD35C012B05D1FB79B6
:1005CC00054A0021D154012300E0002318460C37C2
:1005DC00BD4680BC704700BF6000002080B483B073
:1005EC0000AF0346FB71FB79022B01D9002302E01B
:1005FC00FB79034AD35C18460C37BD4680BC704768
:10060C006C00002080B500AF00F0D4FC00F074F852
:10061C0000F0FAF800F0ACF82F4801F029FC2F4B51
:10062C001B68184600F054F9012000F067F92B4BB9
:10063C001B682B4A13602B4B1B682B4A136000F072
:10064C000DFAFFF77DFD294B1B78032BF9D801A27E
:10065C0052F823F071060008770600089706000888
:10066C00B706000800F032FB34E0FFF773FE00F031
:10067C00FDFA1F4B1B68012B27D1FA2000F054F90F
:10068C0009211C4800F0AFFF1FE0FFF789FE00F0C6
:10069C00EDFA174B1B68012B19D1FA2000F044F925
:1006AC001221144800F09FFF11E0FFF799FE00F0B3
:1006BC00DDFA0F4B1B68012B0BD1FA2000F034F93B
:1006CC0024210C4800F08FFF03E000BFB9E700BF06
:1006DC00B7E700BFB5E700BFB00000201C0000204A
:1006EC007000002014000020740000204A0000203C
:1006FC008C0000200008014080B590B000AF07F1DD
:10070C00180328220021184601F062FF3B1D00222D
:10071C001A605A609A60DA601A610223BB61012385
:10072C00BB621023FB6200237B6307F1180318469E
:10073C0000F072FF0346002B01D000F081FB0F2369
:10074C007B600023BB600023FB6000233B61002324
:10075C007B613B1D0021184601F0DEF90346002B9E
:10076C0001D000F06DFB00BF4037BD4680BD0000DE
:10077C0080B586B000AF07F1080300221A605A60FA
:10078C009A60DA603B4600221A605A601D4B4FF0AB
:10079C0080421A601B4B41F63F725A60194B002283
:1007AC009A60184B0922DA60164B00221A61154B1D
:1007BC0000229A61134801F00BFB0346002B01D079
:1007CC0000F03EFB4FF48053BB6007F10803194661
:1007DC000C4801F089FC0346002B01D000F030FBE3
:1007EC0000233B6000237B603B461946054801F023
:1007FC0061FE0346002B01D000F022FB00BF18372E
:10080C00BD4680BDB000002080B586B000AF07F1BA
:10081C00080300221A605A609A60DA60294B9B69BF
:10082C00284A43F004039361264B9B6903F00403AD
:10083C007B607B68234B9B69224A43F008039361DE
:10084C00204B9B6903F008033B603B68002241F698
:10085C00FF711D4800F0AFFE002241F6FF711B48EE
:10086C0000F0A9FE41F6FF73BB600123FB6000237F
:10087C003B6102237B6107F108031946124800F023
:10088C0009FD41F6FF73BB600123FB6000233B6154
:10089C0002237B6107F1080319460C4800F0FAFCAF
:1008AC004FF46043BB600023FB6001233B6107F105
:1008BC0008031946054800F0EDFC00BF1837BD468B
:1008CC0080BD00BF0010024000080140000C014038
:1008DC0080B483B000AF78607B68642202FB03F3C2
:1008EC00044A1360044B00221A6000BF0C37BD464B
:1008FC0080BC7047780000207C00002080B483B05E
:10090C0000AF78607B68642202FB03F3044A136037
:10091C00044B00221A6000BF0C37BD4680BC7047E8
:10092C00800000208400002080B483B000AF786089
:10093C007B68084A82FB03129210DB17D31A064A13
:10094C001360064B00221A6000BF0C37BD4680BCFA
:10095C00704700BF67666666880000208C00002028
:10096C0080B483B000AF78607B68084A82FB0312C6
:10097C009210DB17D31A064A1360064B00221A603A
:10098C0000BF0C37BD4680BC704700BF676666660B
:10099C00900000209400002080B400AF214B1B6815
:1009AC00002B0BDD1F4B1B68013B1E4A13601D4BBC
:1009BC001B68002B02DC1C4B01221A601B4B1B68B2
:1009CC00002B0BDD194B1B68013B184A1360174BAE
:1009DC001B68002B02DC164B01221A60154B1B689E
:1009EC00002B0BDD134B1B68013B124A1360114BA0
:1009FC001B68002B02DC104B01221A600F4B1B688A
:100A0C00002B0BDD0D4B1B68013B0C4A13600B4B91
:100A1C001B68002B02DC0A4B01221A6000BFBD468A
:100A2C0080BC7047780000207C00002080000020F3
:100A3C0084000020880000208C0000209000002002
:100A4C009400002080B500AF01223F21024800F045
:100A5C00B2FD00BF80BD00BF0008014080B500AFF3
:100A6C00FFF7F0FF144B1B78032B23D801A252F88D
:100A7C0023F000BF910A00089D0A0008A90A00088B
:100A8C00B50A000800220C210C4800F094FD11E07E
:100A9C0000220A21094800F08EFD0BE000222121E2
:100AAC00064800F088FD05E000221121034800F003
:100ABC0082FD00BF00BF80BD6F0000200008014018
:100ACC0080B586B000AF78601D4A07F1080307CAED
:100ADC0003C31A8001227F211A4800F06CFD002309
:100AEC007B6125E07968184B83FB01239A10CB17A7
:100AFC00D21A13469B0013445B00CA1A07F1180361
:100B0C00134413F8103C1A467B6942FA03F303F0C2
:100B1C000103002B09D001227B6902FA03F39BB27B
:100B2C0000221946074800F046FD7B6901337B61C2
:100B3C007B69062BD6DD00BF00BF1837BD4680BDD4
:100B4C0004260008000C01406766666680B500AF9D
:100B5C0001224FF47061224800F02DFD214B1B68DF
:100B6C00214A52F823301846FFF7AAFF1D4B1B6889
:100B7C00032B27D801A252F823F000BF990B0008D1
:100B8C00A70B0008B50B0008C30B000800224FF49C
:100B9C008071134800F00FFD14E000224FF4007137
:100BAC000F4800F008FD0DE000224FF480610C4866
:100BBC0000F001FD06E000224FF40061084800F04F
:100BCC00FAFC00BF074B1B6801335A4203F00303C6
:100BDC0002F0030258BF5342024A136000BF80BDAB
:100BEC0000080140A80000209800002080B400AF4D
:100BFC001A4B1B681A4A82FB03129210DB17D31A8A
:100C0C00184A1360154B1968154B83FB01239A1076
:100C1C00CB17D21A13469B0013445B00CA1A114B14
:100C2C005A60114B1B680E4A82FB03129210DB17A1
:100C3C00D31A0C4A93600C4B1968094B83FB0123A4
:100C4C009A10CB17D21A13469B0013445B00CA1A96
:100C5C00044BDA6000BFBD4680BC704770000020BA
:100C6C0067666666980000207400002080B400AFB0
:100C7C00124B00221A60124B1B7801330F4A53603F
:100C8C00104B1B68104A82FB03129210DB17D31A0D
:100C9C000A4A93600B4B19680B4B83FB01239A1088
:100CAC00CB17D21A13469B0013445B00CA1A034B92
:100CBC00DA6000BFBD4680BC704700BF98000020C2
:100CCC004A0000204C0000206766666680B500AFC5
:100CDC00424B1B68012B1AD10120FFF70FFE404B32
:100CEC001B68013B3E4A13603E4B1B68013B3D4A6F
:100CFC0013603B4B1B68002B02DA394B00221A6045
:100D0C00384B1B68002B02DA364B00221A60364B2C
:100D1C001B68012B5ED1344B00221A60334B1B78BD
:100D2C00032B55D801A252F823F000BF490D00083F
:100D3C00710D0008930D0008BB0D00082B4B012210
:100D4C001A702B4B1B681846FFF7C2FD284B1B680B
:100D5C00234A1360274B1A68274B1B68D31A214A66
:100D6C00136035E0214B02221A70234B1B68184686
:100D7C00FFF7AEFD1F4B1B68194A13601E4B1B6817
:100D8C00184A136024E0194B03221A70184B1B6885
:100D9C001846FFF79DFD174B1A68174B1B68D31AA3
:100DAC000F4A1360124B1B680E4A136010E00F4B76
:100DBC0000221A70104B1B681846FFF789FD0E4B6A
:100DCC001B68074A13600B4B1B68064A136000BF75
:100DDC00FFF744FEFFF70AFF00BF80BD8400002030
:100DEC0070000020740000207C0000206F000020A8
:100DFC0018000020140000201C00002080B582B0D8
:100E0C0000AF78607B681B68B3F1804F11D1FFF79E
:100E1C00C3FDFFF705FB094B1B680133074A136041
:100E2C00064B1B68092B04DDFFF790FE034B0022D9
:100E3C001A6000BF0837BD4680BD00BFAC00002063
:100E4C0080B400AF72B600BFFEE7000080B485B07E
:100E5C0000AF154B9B69144A43F001039361124B8D
:100E6C009B6903F00103BB60BB680F4BDB690E4A47
:100E7C0043F08053D3610C4BDB6903F080537B60F0
:100E8C007B680A4B5B68FB60FB6823F0E063FB60EC
:100E9C00FB6843F08063FB60044AFB68536000BF4F
:100EAC001437BD4680BC7047001002400000014062
:100EBC0080B584B000AF78607B681B68B3F1804F5D
:100ECC0013D10C4BDB690B4A43F00103D361094B83
:100EDC00DB6903F00103FB60FB68002200211C208E
:100EEC0000F0A1F91C2000F0BAF900BF1037BD4684
:100EFC0080BD00BF0010024080B400AFFEE780B49C
:100F0C0000AFFEE780B400AFFEE780B400AFFEE7B1
:100F1C0080B400AFFEE780B400AF00BFBD4680BC1C
:100F2C00704780B400AF00BFBD4680BC704780B432
:100F3C0000AF00BFBD4680BC704780B500AF00F06D
:100F4C007FF800BF80BD000080B500AF024800F004
:100F5C00DBFF00BF80BD00BFB000002080B400AF3D
:100F6C0000BFBD4680BC7047FFF7F8FF0B480C492B
:100F7C000C4A002302E0D458C4500433C4188C42E9
:100F8C00F9D3094A094C002301E013600432A24250
:100F9C00FBD301F0F9FAFFF735FB70470000002096
:100FAC002C0000203C2600082C000020FC00002017
:100FBC00FEE7000080B500AF084B1B68074A43F002
:100FCC0010031360032000F023F90F2000F008F841
:100FDC00FFF73CFF0023184680BD00BF00200240F5
:100FEC0080B582B000AF7860124B1A68124B1B7838
:100FFC0019464FF47A73B3FBF1F3B2FBF3F31846D3
:10100C0000F03BF90346002B01D001230EE07B6876
:10101C000F2B0AD8002279684FF0FF3000F003F94B
:10102C00064A7B681360002300E00123184608374A
:10103C00BD4680BD20000020280000202400002098
:10104C0080B400AF054B1B781A46054B1B68134444
:10105C00034A136000BFBD4680BC704728000020C7
:10106C00F800002080B400AF024B1B681846BD4648
:10107C0080BC7047F800002080B485B000AF786069
:10108C007B6803F00703FB600C4BDB68BB60BA6842
:10109C004FF6FF031340BB60FB681A02BB68134397
:1010AC0043F0BF6343F40033BB60044ABB68D360B6
:1010BC0000BF1437BD4680BC704700BF00ED00E098
:1010CC0080B400AF044BDB681B0A03F0070318461F
:1010DC00BD4680BC704700BF00ED00E080B483B01B
:1010EC0000AF0346FB7197F90730002B0BDBFB7944
:1010FC0003F01F02064997F907305B09012000FA3B
:10110C0002F241F8232000BF0C37BD4680BC70476B
:10111C0000E100E080B483B000AF03463960FB719E
:10112C0097F90730002B0ADB3B68DAB20C4997F9C8
:10113C0007301201D2B20B4483F800230AE03B685B
:10114C00DAB20849FB7903F00F03043B1201D2B267
:10115C000B441A7600BF0C37BD4680BC704700BFED
:10116C0000E100E000ED00E080B489B000AFF86071
:10117C00B9607A60FB6803F00703FB61FB69C3F19C
:10118C000703042B28BF0423BB61FB690433062B24
:10119C0002D9FB69033B00E000237B614FF0FF3277
:1011AC00BB6902FA03F3DA43BB681A407B699A40C5
:1011BC004FF0FF317B6901FA03F3D9437B680B4095
:1011CC00134318462437BD4680BC704780B582B0A7
:1011DC0000AF78607B68013BB3F1807F01D30123C2
:1011EC000FE00A4A7B68013B53600F214FF0FF3040
:1011FC00FFF790FF054B00229A60044B07221A6000
:10120C00002318460837BD4680BD00BF10E000E043
:10121C0080B582B000AF78607868FFF72DFF00BF13
:10122C000837BD4680BD80B586B000AF0346B960B7
:10123C007A60FB7300237B61FFF742FF78617A6869
:10124C00B9687869FFF790FF024697F90F3011469D
:10125C001846FFF75FFF00BF1837BD4680BD80B54D
:10126C0082B000AF0346FB7197F907301846FFF7C1
:10127C0035FF00BF0837BD4680BD80B582B000AFDA
:10128C0078607868FFF7A2FF034618460837BD461A
:10129C0080BD000080B48BB000AF78603960002353
:1012AC007B6200233B6248E101227B6A02FA03F372
:1012BC00FB613B681B68FA691340BB61BA69FB6947
:1012CC009A4240F037813B685B68A34A93425ED0F8
:1012DC00A14A934275D8A14A934258D09F4A93424F
:1012EC006FD89F4A934252D09D4A934269D89D4AE7
:1012FC0093424CD09B4A934263D89B4A934246D02C
:10130C00994A93425DD8122B2AD8122B59D801A294
:10131C0052F823F09B13000875130008871300087C
:10132C00C9130008CF130008CF130008CF1300080F
:10133C00CF130008CF130008CF130008CF130008F9
:10134C00CF130008CF130008CF130008CF130008E9
:10135C00CF130008CF1300087D1300089113000869
:10136C00824A934213D02CE03B68DB683B6229E055
:10137C003B68DB6804333B6224E03B68DB68083382
:10138C003B621FE03B68DB680C333B621AE03B6856
:10139C009B68002B02D104233B6213E03B689B68E3
:1013AC00012B05D108233B627B68FA691A6109E0BD
:1013BC0008233B627B68FA695A6103E000233B62B5
:1013CC0000E000BFBB69FF2B01D87B6801E07B68A4
:1013DC0004337B61BB69FF2B02D87B6A9B0002E064
:1013EC007B6A083B9B003B617B691A680F213B6958
:1013FC0001FA03F3DB431A40396A3B6901FA03F340
:10140C001A437B691A603B685B6803F08053002BBE
:10141C0000F09080564B9B69554A43F00103936151
:10142C00534B9B6903F00103BB60BB68514A7B6A59
:10143C009B08023352F82330FB607B6A03F00303F2
:10144C009B000F2202FA03F3DB43FA681340FB60A4
:10145C007B68494A93420DD07B68484A934207D037
:10146C007B68474A934201D1022304E0032302E044
:10147C00012300E000237A6A02F0030292009340F9
:10148C00FA681343FB603B497B6A9B080233FA689A
:10149C0041F823203B685B6803F48013002B06D0D3
:1014AC00384B9A683749BB6913438B6006E0354B60
:1014BC009A68BB69DB43334913408B603B685B68BC
:1014CC0003F40013002B06D02E4BDA682D49BB69B0
:1014DC001343CB6006E02B4BDA68BB69DB4329492D
:1014EC001340CB603B685B6803F40033002B06D0E1
:1014FC00244B5A682349BB6913434B6006E0214BCC
:10150C005A68BB69DB431F4913404B603B685B68FF
:10151C0003F48033002B06D01A4B1A681949BB69A7
:10152C0013430B6006E0174B1A68BB69DB43154984
:10153C0013400B607B6A01337B623B681A687B6AE1
:10154C0022FA03F3002B7FF4AFAE00BF00BF2C37A1
:10155C00BD4680BC704700BF000032100000311047
:10156C0000002210000021100000121000001110C9
:10157C00001002400000014000080140000C014036
:10158C00001001400004014080B485B000AF7860C9
:10159C000B467B807B689A687B881340002B02D0BB
:1015AC000123FB7301E00023FB73FB7B184614370C
:1015BC00BD4680BC704780B483B000AF78600B46EA
:1015CC007B8013467B707B78002B03D07A887B68FA
:1015DC001A6103E07B881A047B681A6100BF0C3720
:1015EC00BD4680BC704780B485B000AF78600B46B8
:1015FC007B807B68DB68FB607A88FB6813401A048D
:10160C00FB68D9437B880B401A437B681A6100BF87
:10161C001437BD4680BC704780B586B000AF78608B
:10162C007B68002B01D101236CE27B681B6803F003
:10163C000103002B00F08780924B5B6803F00C03D6
:10164C00042B0CD08F4B5B6803F00C03082B12D1CE
:10165C008C4B5B6803F48033B3F5803F0BD1894B23
:10166C001B6803F40033002B6CD07B685B68002B89
:10167C0068D1012346E27B685B68B3F5803F06D1F5
:10168C00804B1B687F4A43F4803313602EE07B68E9
:10169C005B68002B0CD17B4B1B687A4A23F480339C
:1016AC001360784B1B68774A23F4802313601DE08A
:1016BC007B685B68B3F5A02F0CD1724B1B68714A29
:1016CC0043F4802313606F4B1B686E4A43F48033E2
:1016DC0013600BE06B4B1B686A4A23F48033136076
:1016EC00684B1B68674A23F4802313607B685B6834
:1016FC00002B13D0FFF7B6FC386108E0FFF7B2FC03
:10170C0002463B69D31A642B01D90323FAE15D4BE2
:10171C001B6803F40033002BF0D014E0FFF7A2FC9D
:10172C00386108E0FFF79EFC02463B69D31A642B34
:10173C0001D90323E6E1534B1B6803F40033002B60
:10174C00F0D100E000BF7B681B6803F00203002BA4
:10175C0063D04C4B5B6803F00C03002B0BD0494B54
:10176C005B6803F00C03082B1CD1464B5B6803F43D
:10177C008033002B16D1434B1B6803F00203002B64
:10178C0005D07B681B69012B01D00123BAE13D4BCD
:10179C001B6823F0F8027B685B69DB003949134353
:1017AC000B603AE07B681B69002B20D0364B012282
:1017BC001A60FFF757FC386108E0FFF753FC02464C
:1017CC003B69D31A022B01D903239BE12D4B1B68D8
:1017DC0003F00203002BF0D02A4B1B6823F0F80215
:1017EC007B685B69DB00274913430B6015E0264BD4
:1017FC0000221A60FFF736FC386108E0FFF732FC74
:10180C0002463B69D31A022B01D903237AE11D4B03
:10181C001B6803F00203002BF0D17B681B6803F0FC
:10182C000803002B3AD07B689B69002B19D0174B0F
:10183C0001221A60FFF716FC386108E0FFF712FC72
:10184C0002463B69D31A022B01D903235AE10D4BF3
:10185C005B6A03F00203002BF0D0012000F09AFA2F
:10186C001CE00A4B00221A60FFF7FCFB38610FE00A
:10187C00FFF7F8FB02463B69D31A022B08D9032366
:10188C0040E100BF0010024000004242800442428E
:10189C009E4B5B6A03F00203002BE9D17B681B684B
:1018AC0003F00403002B00F0A6800023FB75974B7C
:1018BC00DB6903F08053002B0DD1944BDB69934A09
:1018CC0043F08053D361914BDB6903F08053BB60D1
:1018DC00BB680123FB758E4B1B6803F48073002BD4
:1018EC0018D18B4B1B688A4A43F480731360FFF743
:1018FC00B9FB386108E0FFF7B5FB02463B69D31A28
:10190C00642B01D90323FDE0814B1B6803F4807326
:10191C00002BF0D07B68DB68012B06D17B4B1B6A5C
:10192C007A4A43F0010313622DE07B68DB68002BDD
:10193C000CD1764B1B6A754A23F001031362734B6F
:10194C001B6A724A23F0040313621CE07B68DB6899
:10195C00052B0CD16D4B1B6A6C4A43F004031362CC
:10196C006A4B1B6A694A43F0010313620BE0674B35
:10197C001B6A664A23F001031362644B1B6A634AB9
:10198C0023F0040313627B68DB68002B15D0FFF790
:10199C0069FB38610AE0FFF765FB02463B69D31A25
:1019AC0041F28832934201D90323ABE0574B1B6AB7
:1019BC0003F00203002BEED014E0FFF753FB386169
:1019CC000AE0FFF74FFB02463B69D31A41F288321B
:1019DC00934201D9032395E04C4B1B6A03F002039D
:1019EC00002BEED1FB7D012B05D1484BDB69474A1F
:1019FC0023F08053D3617B68DB69002B00F081807E
:101A0C00424B5B6803F00C03082B61D07B68DB69ED
:101A1C00022B46D13F4B00221A60FFF723FB3861A3
:101A2C0008E0FFF71FFB02463B69D31A022B01D9D2
:101A3C00032367E0354B1B6803F00073002BF0D1D8
:101A4C007B681B6AB3F5803F08D1304B5B6823F48D
:101A5C0000327B689B682D4913434B602B4B5B68B2
:101A6C0023F474127B68196A7B685B6A0B43274901
:101A7C0013434B60274B01221A60FFF7F3FA3861CE
:101A8C0008E0FFF7EFFA02463B69D31A022B01D9A3
:101A9C00032337E01D4B1B6803F00073002BF0D0C1
:101AAC002FE01C4B00221A60FFF7DCFA386108E0CB
:101ABC00FFF7D8FA02463B69D31A022B01D903234C
:101ACC0020E0124B1B6803F00073002BF0D118E0E0
:101ADC007B68DB69012B01D1012313E00B4B5B68A5
:101AEC00FB60FB6803F480327B681B6A9A4206D168
:101AFC00FB6803F470127B685B6A9A4201D0012385
:101B0C0000E0002318461837BD4680BD0010024087
:101B1C00007000406000424280B584B000AF786035
:101B2C0039607B68002B01D10123D0E06A4B1B6824
:101B3C0003F007033A689A4210D9674B1B6823F0ED
:101B4C00070265493B6813430B60634B1B6803F04A
:101B5C0007033A689A4201D00123B8E07B681B68FE
:101B6C0003F00203002B20D07B681B6803F00403F6
:101B7C00002B05D0594B5B68584A43F4E063536023
:101B8C007B681B6803F00803002B05D0534B5B6884
:101B9C00524A43F460535360504B5B6823F0F0029D
:101BAC007B689B684D4913434B607B681B6803F053
:101BBC000103002B40D07B685B68012B07D1474B9E
:101BCC001B6803F40033002B15D101237FE07B68E5
:101BDC005B68022B07D1414B1B6803F00073002B91
:101BEC0009D1012373E03D4B1B6803F00203002B6A
:101BFC0001D101236BE0394B5B6823F003027B6856
:101C0C005B68364913434B60FFF72CFAF8600AE027
:101C1C00FFF728FA0246FB68D31A41F28832934246
:101C2C0001D9032353E02D4B5B6803F00C027B6856
:101C3C005B689B009A42EBD1274B1B6803F00703B0
:101C4C003A689A4210D2244B1B6823F007022249AF
:101C5C003B6813430B60204B1B6803F007033A6887
:101C6C009A4201D0012332E07B681B6803F0040325
:101C7C00002B08D0194B5B6823F4E0627B68DB68AF
:101C8C00164913434B607B681B6803F00803002B59
:101C9C0009D0124B5B6823F460527B681B69DB0034
:101CAC000E4913434B6000F021F802460B4B5B6866
:101CBC001B0903F00F030A49CB5C22FA03F3094A10
:101CCC001360094B1B681846FFF78AF90023184666
:101CDC001037BD4680BD00BF0020024000100240FE
:101CEC0010260008200000202400002080B487B0BB
:101CFC0000AF0023FB600023BB6000237B6100234B
:101D0C007B6000233B611E4B5B68FB60FB6803F050
:101D1C000C03042B02D0082B03D027E0194B3B619A
:101D2C0027E0FB689B0C03F00F03174AD35C7B6026
:101D3C00FB6803F48033002B10D0114B5B685B0CF9
:101D4C0003F00103114AD35CBB607B680D4A02FBB4
:101D5C0003F2BB68B2FBF3F37B6104E07B680C4AD3
:101D6C0002FB03F37B617B693B6102E0054B3B614A
:101D7C0000BF3B6918461C37BD4680BC704700BF8E
:101D8C000010024000127A002026000830260008BD
:101D9C0000093D0080B485B000AF78600A4B1B6829
:101DAC000A4AA2FB03235B0A7A6802FB03F3FB607B
:101DBC0000BFFB685A1EFA60002BF9D100BF00BFB0
:101DCC001437BD4680BC704720000020D34D6210F4
:101DDC0080B582B000AF78607B68002B01D1012305
:101DEC0041E07B6893F83D30DBB2002B06D17B6879
:101DFC00002283F83C207868FFF75AF87B680222AF
:101E0C0083F83D207B681A687B68043319461046BA
:101E1C0000F056FA7B68012283F846207B68012289
:101E2C0083F83E207B68012283F83F207B680122E7
:101E3C0083F840207B68012283F841207B680122D3
:101E4C0083F842207B68012283F843207B680122BF
:101E5C0083F844207B68012283F845207B680122AB
:101E6C0083F83D20002318460837BD4680BD00008E
:101E7C0080B485B000AF78607B6893F83D30DBB2FE
:101E8C00012B01D0012335E07B68022283F83D2031
:101E9C007B681B68DA687B681B6842F00102DA60B9
:101EAC007B681B68164A934209D07B681B68B3F1A8
:101EBC00804F04D07B681B68124A934211D17B6817
:101ECC001B689B6803F00703FB60FB68062B10D0B4
:101EDC007B681B681A687B681B6842F001021A60F9
:101EEC0007E07B681B681A687B681B6842F001027C
:101EFC001A60002318461437BD4680BC704700BFDB
:101F0C00002C01400004004080B584B000AF786024
:101F1C007B681B68DB68FB607B681B681B69BB60AC
:101F2C00BB6803F00203002B20D0FB6803F0020314
:101F3C00002B1BD07B681B686FF002021A617B6858
:101F4C0001221A777B681B689B6903F00303002B43
:101F5C0003D0786800F098F905E0786800F08BF908
:101F6C00786800F09AF97B6800221A77BB6803F056
:101F7C000403002B20D0FB6803F00403002B1BD0C0
:101F8C007B681B686FF004021A617B6802221A7767
:101F9C007B681B689B6903F44073002B03D0786843
:101FAC0000F072F905E0786800F065F9786800F0E7
:101FBC0074F97B6800221A77BB6803F00803002BC6
:101FCC0020D0FB6803F00803002B1BD07B681B6838
:101FDC006FF008021A617B6804221A777B681B6811
:101FEC00DB6903F00303002B03D0786800F04CF995
:101FFC0005E0786800F03FF9786800F04EF97B68EE
:10200C0000221A77BB6803F01003002B20D0FB686A
:10201C0003F01003002B1BD07B681B686FF01002C1
:10202C001A617B6808221A777B681B68DB6903F4EA
:10203C004073002B03D0786800F026F905E078682F
:10204C0000F019F9786800F028F97B6800221A77FB
:10205C00BB6803F00103002B0CD0FB6803F00103F9
:10206C00002B07D07B681B686FF001021A6178683F
:10207C00FEF7C4FEBB6803F08003002B0CD0FB689A
:10208C0003F08003002B07D07B681B686FF0800285
:10209C001A61786800F06FFABB6803F04003002BFC
:1020AC000CD0FB6803F04003002B07D07B681B6847
:1020BC006FF040021A61786800F0F8F8BB6803F022
:1020CC002003002B0CD0FB6803F02003002B07D05F
:1020DC007B681B686FF020021A61786800F042FA86
:1020EC0000BF1037BD4680BD80B584B000AF7860AE
:1020FC0039600023FB737B6893F83C30012B01D1D2
:10210C000223B4E07B68012283F83C207B68022226
:10211C0083F83D207B681B689B68BB60BB6823F021
:10212C007703BB60BB6823F47F43BB607B681B6891
:10213C00BA689A603B681B68B3F5005F3ED0B3F594
:10214C00005F00F28780B3F5805F00F08680B3F506
:10215C00805F7FD8702B1AD0702B7BD8602B50D01F
:10216C00602B77D8502B3CD0502B73D8402B58D0A9
:10217C00402B6FD8302B64D0302B6BD8202B60D0F9
:10218C00202B67D8002B5CD0102B5AD062E07B68D8
:10219C0018683B6899683B685A683B68DB6800F0D4
:1021AC006AF97B681B689B68BB60BB6843F077036C
:1021BC00BB607B681B68BA689A604FE07B681868E4
:1021CC003B6899683B685A683B68DB6800F053F9D8
:1021DC007B681B689A687B681B6842F480429A6033
:1021EC003CE07B6818683B6859683B68DB681A46BA
:1021FC0000F0CAF87B681B685021184600F021F9E2
:10220C002CE07B6818683B6859683B68DB681A46A9
:10221C0000F0E8F87B681B686021184600F011F9A3
:10222C001CE07B6818683B6859683B68DB681A4699
:10223C0000F0AAF87B681B684021184600F001F9F1
:10224C000CE07B681A683B681B681946104600F066
:10225C00F8F803E00123FB7300E000BF7B68012268
:10226C0083F83D207B68002283F83C20FB7B1846DA
:10227C001037BD4680BD80B483B000AF786000BF1E
:10228C000C37BD4680BC704780B483B000AF78601B
:10229C0000BF0C37BD4680BC704780B483B000AF24
:1022AC00786000BF0C37BD4680BC704780B483B0EB
:1022BC0000AF786000BF0C37BD4680BC7047000093
:1022CC0080B485B000AF786039607B681B68FB60B8
:1022DC007B682B4A934207D07B68B3F1804F03D0C5
:1022EC007B68284A934208D1FB6823F07003FB609B
:1022FC003B685B68FA681343FB607B68204A934237
:10230C0007D07B68B3F1804F03D07B681D4A9342A2
:10231C0008D1FB6823F44073FB603B68DB68FA6808
:10232C001343FB60FB6823F080023B685B6913433B
:10233C00FB607B68FA681A603B689A687B68DA62B3
:10234C003B681A687B689A627B680D4A934203D19A
:10235C003B681A697B681A637B6801225A617B6847
:10236C001B6903F00103002B05D07B681B6923F06C
:10237C0001027B681A6100BF1437BD4680BC7047F0
:10238C00002C01400004004080B487B000AFF8601E
:10239C00B9607A60FB681B6A7B61FB681B6A23F07F
:1023AC000102FB681A62FB689B693B613B6923F085
:1023BC00F0033B617B681B013A6913433B617B690A
:1023CC0023F00A037B617A69BB6813437B61FB686A
:1023DC003A699A61FB687A691A6200BF1C37BD467C
:1023EC0080BC704780B487B000AFF860B9607A6089
:1023FC00FB681B6A7B61FB681B6A23F01002FB689D
:10240C001A62FB689B693B613B6923F470433B6137
:10241C007B681B033A6913433B617B6923F0A00380
:10242C007B61BB681B017A6913437B61FB683A696A
:10243C009A61FB687A691A6200BF1C37BD4680BC82
:10244C00704780B485B000AF786039607B689B685A
:10245C00FB60FB6823F07003FB603A68FB68134376
:10246C0043F00703FB607B68FA689A6000BF14377F
:10247C00BD4680BC704780B487B000AFF860B960CF
:10248C007A603B60FB689B687B617B6923F47F43CC
:10249C007B613B681A027B681A43BB6813437A69F9
:1024AC0013437B61FB687A699A6000BF1C37BD4699
:1024BC0080BC704780B485B000AF786039607B68B1
:1024CC0093F83C30012B01D1022341E07B680122BF
:1024DC0083F83C207B68022283F83D207B681B68D4
:1024EC005B68FB607B681B689B68BB60FB6823F0C8
:1024FC007003FB603B681B68FA681343FB607B68E6
:10250C001B68FA685A607B681B68144A934209D0AE
:10251C007B681B68B3F1804F04D07B681B68104A42
:10252C0093420CD1BB6823F08003BB603B685B68B3
:10253C00BA681343BB607B681B68BA689A607B6897
:10254C00012283F83D207B68002283F83C20002385
:10255C0018461437BD4680BC704700BF002C0140A4
:10256C000004004080B483B000AF786000BF0C372B
:10257C00BD4680BC704780B483B000AF786000BFAC
:10258C000C37BD4680BC704770B500260C4D0D4C09
:10259C00641BA410A64209D100F022F800260A4DB3
:1025AC000A4C641BA410A64205D170BD55F8043B1F
:1025BC0098470136EEE755F8043B98470136F2E7A9
:1025CC003426000834260008342600083826000873
:1025DC0003460244934200D1704703F8011BF9E70C
:1025EC00F8B500BFF8BC08BC9E467047F8B500BFF4
:0825FC00F8BC08BC9E467047C4
:102604003F065B4F666D7D077F6F00000000000092
:102614000000000001020304060708090203040580
:10262400060708090A0B0C0D0E0F1010010200001A
:042634003101000868
:042638000D01000888
:10263C000020004000800000000C0140000C014014
:10264C00000C014005000000020000000300000027
:0C265C0000127A001000000001000000D5
:0400000508000F756B
:00000001FF
